:020000040800F2
:10000000407B01209D030008474F00081F4800085F
:10001000454F000821330008555900080000000032
:10002000000000000000000000000000DD020008E9
:100030002333000800000000390300086153000862
:10004000B7030008B7030008B7030008B7030008A8
:10005000B7030008B7030008B7030008B703000898
:10006000B7030008B7030008B7030008B703000888
:10007000B7030008B7030008B7030008B703000878
:10008000B7030008B7030008B7030008B703000868
:10009000B7030008B7030008B7030008B703000858
:1000A000B7030008B7030008B7030008B703000848
:1000B000B7030008B7030008B7030008B703000838
:1000C000B7030008B7030008B7030008B703000828
:1000D000B7030008B5570008C157000805580008C5
:1000E000B7030008B7030008B7030008B703000808
:1000F000B7030008B7030008B7030008B7030008F8
:10010000B7030008B7030008B7030008B7030008E7
:10011000B7030008B703000835540008B703000808
:10012000B7030008B7030008B7030008B7030008C7
:10013000B7030008B7030008B7030008B7030008B7
:10014000B7030008B7030008B7030008B7030008A7
:10015000B7030008B7030008B7030008B703000897
:10016000B7030008B7030008B7030008B703000887
:10017000B7030008B7030008B70300080000000039
:10018000B7030008B703000800F002F800F096F883
:100190000AA090E8000C82448344AAF10107DA45E2
:1001A00001D100F08BF8AFF2090EBAE80F0013F09E
:1001B000010F18BFFB1A43F001031847C4E6000003
:1001C000E4E60000103A24BF78C878C1FAD8520794
:1001D00024BF30C830C144BF04680C6070470000C1
:1001E0000023002400250026103A28BF78C1FBD840
:1001F000520728BF30C148BF0B6070476E2900F01E
:100200003E87702900F05D8366290DF043806529E3
:100210000DF0408067290DF03D8061290DF03C8094
:1002200003681B0A28BF41F08001692900F0908211
:10023000642900F08D82752900F08A826F2901F00F
:100240000682782900F02983E92900F0BD82E4299B
:1002500000F0BA82F52900F0B782EF2901F003829D
:10026000F82900F028830368DB0928BF41F08001EA
:10027000632901F04E81732901F05381E32901F0D4
:10028000F986F32901F0FE86002070471FB50CF0B7
:10029000B8FF9DE8030000F001FE01F0F7FC040048
:1002A000002000210CF056F8401C60600020002166
:1002B0000CF066F8E0601FBD10B510BD02F03DF90E
:1002C0001146FFF7E3FF08F053F902F085FB03B492
:1002D000FFF7F2FF03BC07F0E1FA00002C4B1968AE
:1002E0000868B0E8F04F80F30988BFF36F8F4FF0D4
:1002F000000080F311887047000000000848006883
:10030000006880F308884FF0000080F3148862B61C
:1003100061B6BFF34F8FBFF36F8F00DF00BF00BF29
:1003200008ED00E0DFF80C00016841F470010160A5
:10033000704700BF88ED00E0EFF30980BFF36F8FD7
:10034000134B1A681EF0100F08BF20ED108A20E929
:10035000F04F106009B44FF0500080F31188BFF3E4
:100360004F8FBFF36F8F0BF017FE4FF0000080F33D
:10037000118809BC19680868B0E8F04F1EF0100F2A
:1003800008BFB0EC108A80F30988BFF36F8F704705
:10039000C0000020EFF30580704700000948804747
:1003A00009480047FEE7FEE7FEE7FEE7FEE7FEE757
:1003B000FEE7FEE7FEE7FEE704480549054A064B6F
:1003C000704700002554000889010008405C0120A6
:1003D000407B0120406C0120406C012070B5064636
:1003E00000F040FD056806F10B0020F00704B44260
:1003F0009CBF002070BD2B466A68BAB11068A0424D
:1004000010D304F1080188423CBF5068586007D3FC
:100410005168101941601168091B0160586014602F
:10042000101D70BD13465268002AE7D121462846A8
:1004300000F020FD0028DED170BD70B50446051F18
:1004400000F010FD0068002C14BF446870BD002C43
:1004500018BFAC423CBF20466468F8D301680A1854
:10046000AA4218BF456003D12A68054611440160BD
:1004700028684119A1421CBF6C6070BD6168696049
:1004800021680844286070BD70B50D460646041FFB
:1004900000F0E8FCD0F800C0C5B1E6B105F10B00F2
:1004A00020F00703AB423CBF002070BD206898429B
:1004B00038BFDCF8042013D3C11A08292FD3E01861
:1004C00040F8041B2360FFF7B8FF28E03046FFF731
:1004D000B4FF002070BD2846BDE87040FFF77EBF26
:1004E000002A18BFA2423CBF94465268F8D30119B3
:1004F000914216D111680844984212D3C11A0829B2
:100500003CBF2060506808D35168E0184160216802
:1005100012681144C91A01602360CCF80400201D40
:1005200070BD181FFFF75AFF050007D021680A1F8A
:10053000211D00F0D0FB201DFFF77FFF284670BD76
:1005400053EA020C00F069802DE9F04B4FF00006F1
:10055000002B1FBFB3FA83F503FA05F424FA05F65E
:100560005E4012BF1643B2FA82F502FA05F4C5F1F5
:1005700020051EBF22FA05FC44EA0C04203556EA89
:10058000044C4FEA144418BF641C4FF000084FF0AD
:100590000009904271EB030C39D3002919BFB1FA5D
:1005A00081F701FA07F6B0FA80F700FA07F6C7F10B
:1005B00020071EBF20FA07FC46EA0C062037B6FBD0
:1005C000F4FCA7EB0507103F07F01F0BCBF120064B
:1005D0000CFA0BFB2CFA06F644BFB3460026202F7C
:1005E000A4BF5E464FF0000B5BEA060C08BF4FF05D
:1005F000010B19EB0B09ABFB027C48EB0608C01B97
:1006000006FB02CC0BFB03CC71EB0C01C1E70B46E4
:10061000024641464846BDE8F08B13B54FF0000056
:100620004FF00001AFF30080BDE81C40704710B5EB
:10063000044600F00FFC0068005DC00602D504F11E
:10064000200010BD204610BD1CB50C46064B7B4457
:1006500069460090204600F03AFF044600206946B3
:1006600000F048FF20461CBDA30E00000FB4044953
:1006700010B503AA029800F059FF10BC5DF814FBF6
:10068000380000200FB41CB5084B06AA7B4469460D
:100690000090059800F01BFF04460020694600F01A
:1006A00029FF20461CBC5DF814FB0000650E00000D
:1006B00070B5044685690068C10601D5302600E0A2
:1006C0002026C00707D070BDD4E9012130469047ED
:1006D000206A401C20626D1EF6D570BD70B50446C0
:1006E00085690078C00707D170BDD4E901212020B9
:1006F0009047206A401C20626D1EF6D570BD70B513
:100700000C460546012A05D02878800600D5EA69FE
:10071000002302E0012305E05B1C934202D2E05C6F
:100720000028F9D1A869E618C01AA861286A1844F7
:1007300028622846FFF7BCFF04E0D5E9012114F840
:10074000010B9047B442F8D32846FFF7C7FF70BDAE
:100750002DE9F0410646002410687529314616A59A
:1007600010D000F021FC002802DA404213A507E077
:1007700031688A0701D512A502E0490704D511A501
:10078000012401E000F019FC00210A2206F12407EF
:1007900009E0B0FBF2FCB0FBF2F302FB1C003030CE
:1007A00078541846491C0028F3D123462A4630467F
:1007B000BDE8F04100F00ABC000000002D00000080
:1007C0002B000000200000002DE9F0418046D21DE2
:1007D00022F007020025D2E90002F52915A614D05F
:1007E000011E72F1000106DA0023D0EB030063EB77
:1007F000020211A608E0D8F800108B0701D50FA659
:1008000002E0490701D50EA601251146002408F192
:10081000240704E000F078FB30323A55641C50EABB
:100820000102F7D12B46324621464046BDE8F04151
:1008300000F0CCBB000000002D0000002B000000E9
:1008400020000000F0B40D460188090502D5214CB6
:100850007C4402E01F4C7C440E34002100F124064D
:1008600008E002F00F071209E75D42EA03721B0974
:100870007754491C52EA0307F3D102780023120788
:1008800004D5702D06D009B1022311342246F0BCE4
:1008900000F09CBB01231034F8E770B504460D4608
:1008A0002146106800F089FB024629462046BDE833
:1008B00070400023C6E7D21D22F00703D3E90023CE
:1008C000C0E70368126843F0200303600823C36194
:1008D0000023B7E7A0DC00002DE9F05F894604465D
:1008E0004FF0000ADFF874B1FB44C0F820A02046A6
:1008F000E1688847002874D0252806D0D4E9012172
:100900009047206A401C2062F1E700265F4620469F
:10091000E16888472028054607DB312D05D2781984
:1009200010F8200C08B10643F1E7B00701D526F016
:100930000406C4F81CA00027C4F818A02A2D09D06A
:10094000284606F08CFF38B304EB8708303DC8F822
:10095000185019E059F8041B204604EB87029161F6
:10096000E1688847012F054618D1E069002820DAA0
:1009700026F020061DE0D8F8180000EB800005EBFB
:1009800040003038C8F818002046E168884705461E
:1009900006F065FF0028EED1012F0AD02E2D08D1D8
:1009A0002046E16888477F1C0546022F46F0200656
:1009B000C4DBA069002803DA404246F00106A061CA
:1009C000F00701D026F010066C2D0BD0682D09D051
:1009D0004C2D39D06A2D35D0742D35D07A2D33D0A9
:1009E00016E038E0E1682F4620468847B8420546C1
:1009F00009D16C2F26D04FF48060E1680643204671
:100A00008847054604E06C2F1AD04FF480700643E7
:100A10000DB3A5F14100192802D8203546F400662F
:100A20004A462946204626604E46FFF7E7FB80B13E
:100A300001280BD0F61D26F0070000F1080956E743
:100A40004020E4E78020D8E70020D6E706F104093B
:100A50004DE7284652E7206ABDE8F09F30DC0000F1
:100A60000FB400B58DB010A9099000910B904FF014
:100A7000FF300A9000200C90064878440690064803
:100A800078446A4607900F9909A801F079F80DB0EB
:100A90005DF814FB231100003B11000030B5054642
:100AA0000B462A4613F8014B12F8010B08B1A0427D
:100AB000F8D01CB1002802D06D1CF1E7284630BDEB
:100AC00040EA010310B59B070FD1042A0DD310C8CB
:100AD00008C9121F9C42F8D020BA19BA884201D91D
:100AE000012010BD4FF0FF3010BD1AB1D30703D065
:100AF000521C07E0002010BD10F8013B11F8014B1B
:100B00001B1B07D110F8013B11F8014B1B1B01D136
:100B1000921EF1D1184610BD40EA0103024630B5DD
:100B20009B0710D14FF0013400E008C208C91D1B1B
:100B30009D4315EAC41FF8D013F0FF0102F8011B12
:100B40000DD01B0AF8E711F8013B002B02F8013B1E
:100B500005D011F8013B002B02F8013BF3D130BD69
:100B600010B5431C02E010F8011B71B18107FAD1E6
:100B70004FF0013202C88C1A8C4314EAC211F9D02A
:100B8000C01A0A0603D0C01E10BDC01A10BD0A0448
:100B900001D0801E10BD0902FCD0401E10BD40EAED
:100BA000010370B59B072ED14FF00136042A2AD3DA
:100BB00008C810C99D1B9D43121F15EAC61517D002
:100BC000D8B2E1B2401A50EA056110D198B2A1B290
:100BD000401A50EA05410AD123F07F4024F07F41BA
:100BE000401A50EA052102D1180EA0EB146070BD26
:100BF000A342DBD018BA21BA884201D9012070BDC6
:100C00004FF0FF3070BD0AB9002070BD10F8013BF5
:100C100011F8014B63B1A3420AD1521E08D010F85B
:100C2000013B11F8014B1BB1A34201D1521EEDD182
:100C3000181B70BD421E12F8013F002BFBD111F8AA
:100C4000013B002B02F8013BF9D17047032A40F227
:100C5000308010F0030C00F0158011F8013BBCF15E
:100C6000020F624498BF11F801CB00F8013B38BF76
:100C700011F8013BA2F1040298BF00F801CB38BF84
:100C800000F8013B11F0030300F02580083AC0F0A2
:100C9000088051F8043B083A51F804CBA0E808104A
:100CA000F5E7121D5CBF51F8043B40F8043BAFF37D
:100CB0000080D20724BF11F8013B11F801CB48BFD7
:100CC00011F8012B24BF00F8013B00F801CB48BF0D
:100CD00000F8012B704710B5203AC0F00B80B1E846
:100CE0001850203AA0E81850B1E81850A0E8185061
:100CF000BFF4F5AF5FEA027C24BFB1E81850A0E86A
:100D0000185044BF18C918C0BDE810405FEA827C83
:100D100024BF51F8043B40F8043B08BF7047D2079A
:100D200028BF31F8023B48BF11F8012B28BF20F83B
:100D3000023B48BF00F8012B70474FF00002042926
:100D4000C0F0128010F0030C00F01B80CCF1040CFA
:100D5000BCF1020F18BF00F8012BA8BF20F8022B2E
:100D6000A1EB0C0100F00DB85FEAC17C24BF00F8D4
:100D7000012B00F8012B48BF00F8012B70474FF002
:100D8000000200B5134694469646203922BFA0E8DB
:100D90000C50A0E80C50B1F12001BFF4F7AF0907E7
:100DA00028BFA0E80C5048BF0CC05DF804EB8900D8
:100DB00028BF40F8042B08BF704748BF20F8022B1B
:100DC00011F0804F18BF00F8012B70474FF0013C25
:100DD00050F8042B51F8043B9A4221D1A2EB0C03AA
:100DE000934313EACC1317D150F8042B51F8043B6A
:100DF0009A4215D1A2EB0C03934313EACC130BD107
:100E000050F8042B51F8043B9A4209D1A2EB0C0391
:100E1000934313EACC13DBD04FF00000704700BFC0
:100E2000D01A01BAB1FA81F101F0180122FA01F0E9
:100E3000CB40C1F12001DBB2C0B2C01A2CFA01F3E1
:100E4000D11A914311EAC311E6D170477047704738
:100E50007047000010B500F019FF001D10BD00BF65
:100E6000F5B4000000487047E85B01207047704708
:100E70007047704738B504460A4600206946AFF30C
:100E80000080002808BF38BD02460099204600F0C7
:100E900005FF012038BD012001F048BBF8B5AFF3D4
:100EA0000080054600200C46102000BF0646A81909
:100EB000A0420DD9324669460020AFF300800700FA
:100EC00008BF01F033FB0098A04218BF0546C419C3
:100ED000FFF7C8FF05600746F01D20F00700461920
:100EE000284600F00AF8B44208BFF8BDA21B3146FC
:100EF0003868BDE8F84000F0D1BE00210160C0E9CB
:100F0000011070471020704730B5B0F10A024FEA67
:100F1000900E71F100034EEA817EB0EB0E0061EBA2
:100F200091014FEA101E4EEA017E10EB0E0041EBDC
:100F300011114FEA102E4EEA016E10EB0E0041EB3C
:100F400011214FEA104E4EEA014E10EB0E0041EB1C
:100F50001141401841F100014FEAD00040EA4170D0
:100F60004FEAD10110EB80054FEA810444EA907406
:100F700044EB01046D1944EB0404521BA3414FF0F0
:100F8000000348BF0A3200D530BD401C41F10001CA
:100F900030BD10B500F07EFE006810BD10B50446EF
:100FA00000F078FE046010BD09684A0501D540B222
:100FB0007047C905FCD500B2704709684A0501D5DC
:100FC000C0B27047C905FCD580B270472DE9F04723
:100FD0000D4699469246044600F1240801688806A9
:100FE00004D5E06921F01001216000E00120A84251
:100FF00001DD471B00E00027A1697A1902EB090017
:10100000081AA0612078C00602D42046FFF750FBE2
:10101000002608E0D4E901211AF806009047206A6A
:10102000401C761C20624E45F4DB2078C0060AD5B1
:101030002046FFF73DFB06E0D4E901213020904730
:10104000206A401C2062381EA7F10107F4DC07E08B
:10105000D4E9012118F805009047206A401C20625D
:10106000281EA5F10105F3DC2046FFF737FB2078A9
:10107000000602D50220BDE8F0870120FBE71168D9
:101080000268006A530501D508700AE0D30501D54E
:10109000088006E0130603D5C217C1E9000200E08C
:1010A00008600120704770472DE9FF4F0C461E462F
:1010B0004FF0FF378BB0D2E90001DDF860800A9075
:1010C0008A46C1F30A5505B93D46002108464FF04E
:1010D0000000BAF1000F00F4400005DA00EB8000D8
:1010E0004FF4400101EA50004FEA9059B9F1010F65
:1010F00000DDB9460A9850EA4A000ED044F6105076
:10110000A5F2FF3545432F14B8F1000F1ED07542EC
:10111000291E1EDDC9F100021CE0B8F1010F4FF0DD
:10112000000001D0302103E0F24305E02154401CCF
:10113000B042FBDB30460022002121540B99C1F85C
:101140000880C1E900200FB0BDE8F08FBD1B6D1C09
:10115000DEE74A4600DA694206A801F051F906AB1B
:1011600093E8070003AB83E8070050460A9901F0B3
:10117000A3FC8DE80700A0F500501F3800900398ED
:10118000002D0ADD42F21F014A460844002303A94C
:101190000390684601F04EFF09E0A0F500504A4672
:1011A0001F38002303A90390684601F06DFF8DE806
:1011B00007000004000C03D04FF0FF30410800E0AE
:1011C0001046B8F1000F03D00022009215461EE031
:1011D000751E05D4FFF798FE303262556D1EF9D5A5
:1011E000B3460122084302D000227F1C04E020788D
:1011F000302801D100227F1E002A099784D01DE0EB
:10120000112D07DAFFF780FE303262556D1C50EA6F
:101210000102F5D1084302D00098C8B10EE00021C8
:10122000681E05E0235C625C63542254401E491C26
:101230008142F7DBAB46A81B401E0990002004F852
:101240000B000B98099AC0F80880C0E9002B7AE7D8
:1012500011264FF0000857E72DE9F04F8846044665
:10126000D21D22F0070191B0D1E90001CDE90A01B8
:1012700004F071FB02460B98C00F01D02D2007E04F
:101280002068810701D52B2002E0202101EAC0005F
:10129000032A099001D0072A05DB03464146204670
:1012A00000F09EFE0BE12078800601D5E06900E0A9
:1012B0000620B8F1650F814606D0B8F1660F18D048
:1012C000B8F1670F70D131E00020B9F1110F009033
:1012D00001DB112301E009F101030AAA01A90CA80D
:1012E000FFF7E2FEDDE90C70002609F101058346F7
:1012F00047E001204B4600904FF000470AAA01A9A1
:101300000CA8FFF7D1FEDDE90DB00C995D46002673
:1013100010B909F101000D18B9EB050003D4C0F1B3
:10132000FF3609F10105A5EB09002BE0B9F1010F2A
:1013300001DA4FF001090020B9F1110F0090484681
:1013400001DD112300E003460AAA01A90CA8FFF75A
:10135000ABFEDDE90C704D46002683462078000781
:101360000AD4AB4500DA5D4601A8012D04DD411920
:1013700011F8011C302907D04F4502DA17F1040F8C
:1013800004DA012082460FE06D1EEEE7002F02DC3A
:10139000ED1B3E4403E0781CA84200DD7D1CB81B19
:1013A00000F1010A4FF000472078000703D4AA4556
:1013B00001DB4FF0FF3A0021B7F1004F0DF1430878
:1013C0008DF8431024D002202B23002F01DA7F4216
:1013D0002D230A21021EA0F1010000DC5FB197FB62
:1013E000F1FC97FBF1F201FB1C7C17460CF1300C71
:1013F00008F801CDEEE7A8F1010003702188090586
:1014000001D5452100E06521A0F1010800F8011C8B
:1014100009980FA9A1EB0807FF1D00B10120411990
:1014200001EBEA70A1693844081A401EA0612078D7
:10143000C00602D42046FFF73BF9099828B1D4E949
:1014400001219047206A401C20622078C00622D5E6
:101450002046FFF72DF91EE0002E04DBB34502DD28
:1014600001A8805D00E03020D4E901219047206A86
:10147000401C2062761CAAF101005FEA000A0AD132
:1014800000F004FCC0680168405CD4E90121904789
:10149000206A401C2062281EA5F10105DCDC07E063
:1014A000D4E9012118F8010B9047206A401C206202
:1014B000381EA7F10107F3DC2046FFF70FF90320E0
:1014C00011B041E601694A1C02610878704700B515
:1014D0008FB0CDE901310021059105497944CDE96D
:1014E000031011466846FFF7F7F90FB000BD000082
:1014F000E5FFFFFF0A6802F8010B0A60704710B5AC
:10150000436913B1AFF3008001E0FFF7F8F8012061
:1015100010BD127800F124010A7000224A700122E5
:10152000EDE711684FF0FF32E9E70000074B70B5B7
:101530000D467B44FFF7CBFF0446284600F0D2FF60
:1015400010B14FF0FF3070BD204670BDFF6B000042
:101550002DE9FF5F15468A460446DFF8AC80F84463
:101560000027D8E900103E46CDE9001010E03AF817
:1015700016106A4602A800F0B9FF411C07D0217876
:10158000890603D5E269391891420DD80744761CC3
:101590002078800602D5E069B84205DDAE42E6DB80
:1015A0003AF816000028E2D1A069C01BA0612046CD
:1015B000FFF77EF8D8E90010CDE90010002017E011
:1015C0003AF818106A4602A800F090FFB0F1FF3F09
:1015D00081460BD000250DF1080B05E0D4E901216F
:1015E0001BF8050090476D1C4D45F7D308F101002D
:1015F000B0428046E4DB206A384420622046FFF790
:101600006DF8BDE8FF9F000056D0000030B4002107
:1016100000F1240408E002F00705D208303542EA60
:101620004372DB086554491C52EA0305F3D1046890
:10163000002310A2250707D5A40600D421B1C46950
:1016400001230DA2641EC46130BCFFF7BFBC10B5FE
:10165000044621461068FFF7B0FC02462046BDE86C
:1016600010400023D2E7D21D22F00701D1E9002368
:10167000CCE7000000000000300000002DE9FF4F23
:1016800006468BB00878FF2806D0491C2D2805D0C7
:1016900000244FF0000908E000200CE00124F8E7E6
:1016A00009EB8903491C00EB43090878FF28F7D1AF
:1016B00014B1C9F100008146107800252C46AA46D5
:1016C00029462D2801D02B2804D1521C2D2813D0B7
:1016D000002082468B461078FF280FD04FF0000C78
:1016E0000A21521CA5FB017804FB018105FB0C11AA
:1016F000C5194BEB0104EEE70120EAE7002108469B
:101700004FF00000BAF1000F02D000EB800040085B
:10171000C0F38157012F01DD4FF0FF370E9955EAD5
:10172000040009EB01080BD04FF0020918F5FA7F0D
:1017300016DA4FEACA70002F706008DD012007E05A
:101740004FEACA70C6E900B00FB0BDE8F08F0020C4
:10175000306000F09FFAC0F800901821084616E0AB
:10176000B8F5FA7F18DD002F02DAF748784401E077
:10177000F6487844D0E90010C6E9001040EACA7083
:10178000706000F087FAC0F80090142108460FB08E
:10179000BDE8F04F0BF03FBD002108464FF00000C0
:1017A000B8F10001099002DAC7F1000200E03A4600
:1017B00001DAC8F1000106A800F022FE06AB93E8AA
:1017C000070003AB83E8070044F23E005BEA040134
:1017D0000090584604D144F21E012C465D4600910B
:1017E000210C0904014306D10099240444EA15445C
:1017F0002D041039009104F07F41014306D1009976
:10180000240244EA15642D020839009104F0704165
:10181000014306D10099240144EA15742D01091FE2
:10182000009104F04041014306D10099A40044EA2C
:101830009574AD00891E009104F00041084304D165
:1018400000986D196441401E00904FF001033A4624
:101850006846B8F1000FCDE9014503A902DD01F0AA
:1018600028FC01E001F0FBFBBAF1000F04460D4635
:1018700001D084F00044002108464FF0000009998F
:1018800040F2FF77484010F00C0F07D124F00040E1
:10189000284303D0C4F30A50B84212D100F0FAF939
:1018A000C0F80090C4F30A50B8420AD1A84878445E
:1018B000D0E90010C6E9001004F000410843706050
:1018C00042E7C6E900543FE72DE9FF4F1F464FF0BE
:1018D000000A4FF0FF38454691B0D7E90146CDF8F0
:1018E0003CA000F0D3F9C0680168405C1090B96971
:1018F00012986D1C8847396A814688470028F6D1BE
:10190000B9F1FF3F0AD0002E24F4D06411DDB9F103
:101910002B0F08D0B9F12D0F0BD102E0404615B0C6
:1019200013E744F48064B96912986D1C8847761EE9
:101930008146600504A901D52D2000E02B20002E52
:1019400001F1010B0DF130088DF810003FDDB9F108
:10195000690F08D0B9F1490F05D0B9F16E0F02D067
:10196000B9F14E0F1CD13B4601A8009580E850020A
:10197000DDE912126FF002000BF0F4FCC11CCED1B5
:101980000EE0B96912986D1C884781461398761E3F
:1019900044F4007405600F98401C002E0F9016DD73
:1019A000B9F1300FEDD0B9F1780F02D0B9F1580F7D
:1019B0000DD10F9801280AD13B46CDE90054DDE94D
:1019C0001212001F02960BF0CBFCC11CA7D110997C
:1019D00089453ED144F0800406E01399681CAAF1C1
:1019E000010A44F400740860B9696D1C1298761EEF
:1019F000884730288146F0D02BE01099894505D1E1
:101A0000200603D4761E44F0800418E0484605F012
:101A100026FF08B3761E0DF123018B4544F40074B4
:101A200008D2A9F130000BF8010B200607D5AAF166
:101A3000010003E0200602D40AF101008246A0055D
:101A400002D51399681C0860B96912986D1C884703
:101A50008146002ED1DC53E0002E51DDB9F1650F37
:101A600002D0B9F1450F4BD1A00549D5B9696D1C1C
:101A70001298761E24F440748847002E81460CDDAF
:101A80002B2804D0B9F12D0F07D144F48074B96923
:101A900012986D1C8847761E8146E00501D52D21E0
:101AA00000E02B2108F8011BCDF8008021E0761E14
:101AB0000DF13901884544F400740CD2A9F13000CD
:101AC00010F0FF0088F8000002D10099884509D97C
:101AD00008F1010806E0E00501D51E4801E042F2E8
:101AE0000F708246B96912986D1C88478146139819
:101AF0000560002E04DD484605F0B1FE0028D6D171
:101B0000F96912988847FF2053468BF8000088F83F
:101B1000000000200A900B9004AA0CA90AA8FFF765
:101B2000ADFDA00502D46FF00100F8E614F0240F1B
:101B300012D0E0071CD13868DDE90A12031D3B60B2
:101B40000068C0E9001213E038D100002AD100007B
:101B5000EECF0000F1D8FFFF0AA9684605F06CFE41
:101B6000E00705D13868009A011D396000680260FD
:101B70002846D4E60268114413780160184670477D
:101B8000D1600549794451610449794411620021C9
:101B90001161114600F07ABAEDFFFFFF430100002A
:101BA000426842B1016811F8013B23B1521EC0E9FD
:101BB0000012184670470121C160881E70474268B4
:101BC0005AB1C368016843B983688B4205D0491E86
:101BD000521CC0E90012002070474FF0FF307047E0
:101BE0000FB4002300B589B00CA900910B99CB600C
:101BF000214B7B440693214B7B44079304236FF0D6
:101C00000042CDE901321E4A7A446B4608920246F0
:101C100000200BF0A3FB09B05DF814FB70B506467D
:101C20004FF0FF3015460C46324686B00091CDE9A4
:101C3000010169460020049004A8FFF7D1FF024685
:101C40000498211825B108B1084600E02046286014
:101C5000049800280DD0002A02DD0098884208D0A0
:101C60003246081B69460094CDE9010404A8FFF739
:101C7000B7FF06B070BD0000ABFFFFFFC3FFFFFF63
:101C8000C500000000487047E05B01200048704735
:101C9000005C012000487047E05B0120034640687B
:101CA0008C46002818BF88423CBF03464068F8D3E2
:101CB00018681844884207D00CF1030020F0070090
:101CC000001D411A521A0146081D0A60FEF7B5BBF5
:101CD00010B50446FFF7BEF80068005D00F0010093
:101CE00010BD00002DE9F04F04460D46D21D22F034
:101CF000070089B0D0E900974846394603F02BFE2B
:101D00000246F80F01D02D2307E02068810701D596
:101D10002B2302E0202101EAC0038DF820300BB113
:101D2000012000E00020032A824601D0072A04DBBC
:101D30002946204600F054F93FE12078800601D47E
:101D40000D2500E0E569C7F30A560D2D49DA00219B
:101D50004FEA175B08464FF00000002F00F44000E8
:101D600007DA00EB80004FF4400100EBD07001EA8D
:101D700060008115012901DD4FF0FF3100224FEA9B
:101D8000850CBCF1180F06D31346ACF118004FF0C8
:101D90008052C24003E04FF4801323FA0CF30CF19D
:101DA0000C0CBCF1200F04D3ACF1200C09FA0CF0A0
:101DB00001E007FA0CF000294FF0004801DD18B9E6
:101DC0000FE00ED140450CD319EB02095F4121B958
:101DD000404502D19F4329EA0209BBEB175F00D0BF
:101DE000761C2088000502D57B48784402E07A48BA
:101DF0007844193808AA302302F80A30037C0AF123
:101E00000101002E0AF1020A53546A4602DC4FF027
:101E1000300101E04FF031014FF001088DF8001062
:101E200002D0A6F2FF3603E059EA470100D06B4E1C
:101E3000002D02DC2178090704D54FF002082E217D
:101E40008DF80110C44600210BE0C7F303433F01A6
:101E5000C35C491C6D1E02F80830052908F1010811
:101E600001DA002DF1DC00210CE000EB1973491CB4
:101E70001B786D1E082902F808304FEA091908F18D
:101E8000010801DA002DF0DC21688B0602D516E08E
:101E9000A8F10108E04505DD02EB080313F8013C59
:101EA000302BF5D0B8F1000F09DD02EB080313F871
:101EB000013C2E2B03D1090701D4A8F10108002D04
:101EC00005DD3E2102F808106D1E08F10108407C76
:101ED000002E02F8080008F1010804DA2D207642ED
:101EE00002F8080002E02B2002F808000A214FF453
:101EF0007A70864208F101080BDB96FBF0F3303371
:101F000002F8083096FBF0F308F1010800FB1366B5
:101F100001E0642E0CDB642096FBF0F3303302F812
:101F2000083096FBF0F308F1010800FB136601E0AE
:101F30000A2E06DB96FBF1F0303002F8080008F1BB
:101F4000010896FBF1F001FB1060303002F8080048
:101F5000A16908F1010808EB050202EB0A00081A62
:101F6000A0612078C00602D42046FEF7A1FB216ABA
:101F700008AE01EB0A00206204E0D4E9012116F862
:101F8000010B9047BAF1010AF7D22078C00602D5BA
:101F90002046FEF78DFB6E4609E016F8010B3E2841
:101FA0000FD0D4E901219047206A401C2062B8F18B
:101FB0000108F2D22046FEF791FB09B00320BDE8EC
:101FC000F08F206A2844206203E0D4E90121302008
:101FD00090476D1EEBD3F8E7A5C9000002FCFFFF98
:101FE0002DE9F0411F46044603260168072A01F443
:101FF000006004DB08B116A505E016A503E008B1F2
:1020000015A500E015A521F010002060A069C01EF4
:10201000A0610FB1401EA0612046FEF749FB4FB101
:10202000D4E9012138469047206A401C2062C01C38
:10203000206206E0206AFAE7D4E9012115F8010BD5
:102040009047761EF8D22046FEF748FBBDE8F081A7
:102050004E414E006E616E00494E4600696E66004C
:1020600010B5436913B1AFF3008001E0FFF770FAD8
:10207000012010BD128800F1240182840022C28454
:102080000122EDE711684FF0FF32E9E72DE9F34F48
:102090004FF0000A0C4656468DB001200C9001F11D
:1020A0000C000B9062690B9801219047051E2DD002
:1020B000252D2CD0216A8847C0B162690B98012177
:1020C0009047216A88470028F7D16269411E0B9822
:1020D000904700E0761CA1690D988847216A8847DF
:1020E0000028F7D1E1690D988847DBE7A1690D98D1
:1020F0008847A842074601D1761CD3E7E1690D98CD
:1021000088477F1C02D1BAF1000F6FD06CE1626981
:102110000B9800273D46394690472A2804D162692A
:102120000B98012190470125DFF8D08262690B9856
:1021300001219047A0F130010A290AD24745E5DC88
:1021400007EB870100EB4107303FDFD445F0100576
:10215000ECE7E90601D46FF000476C280AD04C2860
:1021600014D0682815D06A280DD074281CD07A287D
:102170001AD01DE062690B98012190476C2802D0AB
:1021800045F0040514E045F002050DE045F020059A
:102190000AE062690B9801219047682802D045F057
:1021A000080505E045F4006562690B980121904738
:1021B000C4E9015765283DD019DC58287AD00CDCD9
:1021C000452837D004DC252826D041289ED131E08F
:1021D00046282FD0472899D12CE05B2877D061285A
:1021E00028D063287CD0642823D15AE0F7E06F28F8
:1021F00048D008DC66281DD067281BD0692821D06C
:102200006E2816D127E0702845D0732868D075282D
:1022100047D078280DD14DE0A1690D988847252831
:1022200005463FF469AFE1690D9888476D1C3FF49E
:102230006AAFD9E00D9923466A466FF001000BF0B2
:102240008DF8C6E045F0400023464FF00002606084
:10225000A80736D43EE0E8077FF447AF2068011DA9
:1022600021600068290501D506701BE7290701D503
:10227000068017E7A90703D5F117C0E9006111E748
:1022800006600FE745F0400023464FF0080260600B
:10229000A80716D41EE040F60E0125EA0100606092
:1022A00016E045F0400023464FF00A026060A807A0
:1022B00007D40FE045F040006060A80708D523462A
:1022C00010220D996FF00100AFF3008081E007E06C
:1022D000102223460D996FF00100AFF3008078E0E3
:1022E0004FF0000963284F46C8464B46CB4602D004
:1022F0005B2807D039E02079C00601D40120A06016
:10230000012732E06269D4F80CB00B9801219047A4
:102310005E2807D14FF0010949466269D4F80CB034
:102320000B989047216939B900210A4603AB43F85D
:102330002120491C0829FADBD8B3216949B308F1E7
:10234000010862690B98012190475D28F4D1B9F129
:10235000000F09D0002003A951F82020D24341F8F2
:102360002020401C0828F7DB03AB206900282079D7
:102370004FEA40701ED05B462246CDF80080CDE982
:1023800001970D9900286FF0010020DAAFF300806B
:102390001FE0C11703AA00EBD1614B1121F01F010F
:1023A00002EB8302411A1368012088400343136043
:1023B000C7E719E00D99224600286FF00100009749
:1023C00002DAAFF3008004E0AFF3008001E0AFF386
:1023D000008000280ADA401C06D10C9820B14FF08A
:1023E000FF300FB0BDE8F08F5046FAE7E90701D1A2
:1023F0000AF1010A064400200C9053E6CCCCCC0C28
:102400002DE9F047814616468AB0354878440DC814
:102410008DE80D0032487844801C03AC0DC884E878
:102420000D0041F69B300844372190FBF1F290FB00
:10243000F1F5A5F1800501FB12041B3C02D56442B5
:10244000012000E00020DFF898A080460027FA4431
:10245000AAF1BE0A0EE0E0070AD03246684607EB52
:10246000470101230AEB810100F00EFE8DE8070011
:1024700064107F1C002CEED1194F7F44AE3F19E051
:10248000E80715D007EB04100DF1180A90E80E00CC
:102490008AE80E00C068F04201D1981908903246CF
:1024A000012306A903A800F0EFFD03AB83E80700B2
:1024B0006D10641C002DE3D14FF0010332466946D4
:1024C000B8F1000F03A802D000F0B4FD01E000F065
:1024D000DBFDC9E90001C9F808200AB0BDE8F087B2
:1024E00014C40000007B00F08000704770B51646F1
:1024F0000C460546FEF7AEFC036893F8010101287F
:1025000006D0FF2C0FD8185D68B101202C7070BD6B
:10251000D3F807013246214603F207130344284645
:10252000BDE8704018474FF0FF3070BD10B500F0A7
:1025300061FABDE8104000F058BA7546FFF7A2FBFB
:10254000AE4605006946534620F00700854618B0A0
:1025500020B5FDF731FFBDE820404FF000064FF0F9
:1025600000074FF000084FF0000B21F00701AC46C8
:10257000ACE8C009ACE8C009ACE8C009ACE8C009E7
:102580008D4670472DE9FF4F1F464FF03C0987B03D
:102590004FF00042DDE9141001F10108DDF858A008
:1025A00002EA405003900020059083460546044609
:1025B0000490B969461E08988847AAF1010A02905A
:1025C000BAF1000F3BDD02982E2815D0102100F043
:1025D0004CFA00282EDB4FF0010B0599014317D070
:1025E000B9F1000F0BDB4A46C11700F02BFA054387
:1025F0000C43A9F1040905E0012004900BE008B1A7
:1026000045F0010501200590049820B9361D02E02F
:10261000049800B1361FB969089808F10108884785
:10262000BBF1000FAAF1010A0290C9D00999C1F8C3
:102630000080C5E70298702808D0502806D0F969B4
:1026400008988847BBF1000F14D04FE0002002909B
:102650000120BBF1000F049009D0B969089808F176
:1026600001088847AAF10109B9F1000F07DCF969EF
:10267000089888476FF001000BB0BDE8F08F2B2859
:1026800004D02D280CD14FF0FF300490B969089880
:1026900008F101088847A9F10109B9F1000FE6DD49
:1026A000411CE4D00A2100F0E0F90028DFDB0299A8
:1026B00008F1010801EB810100EB41000290B969CA
:1026C000089888470A2100F0D0F9099AA9F1010970
:1026D000B9F1000FC2F8008001DD0028E7DAF969DE
:1026E000089888470499029800FB016655EA04009F
:1026F00004D004F04041090002D006E0039898E0BD
:10270000A40044EA9574AD00B61E04F00041080030
:1027100002D16D196441761E159810F0240F03D074
:102720004FF00B095C4803E04FF028096FF07D0083
:102730008246564507DAAAEB06018944B9F1410FF2
:1027400001DD4FF0410901200021A9F1010200F053
:1027500079F9024628400B462140084301D0012167
:1027600000E00021501E029143F1FF31284021403A
:10277000084301D0012000E000200299834651EA7D
:102780000B014FD0002108464FF00000039900F4E0
:10279000400039B100EB80004FF4400100EBD070F5
:1027A00001EA60008015012802DD4FF0FF3000E0F3
:1027B00013D0401C36D0029860B3BBF1000F0CD18F
:1027C0004A460120002100F03DF9284021400843FD
:1027D00001D0012000E00020E0B101204A460021A4
:1027E00000F030F9034640190A4661412D1A8C4128
:1027F00011D3B9F1400F09DD159810F0240F02D064
:10280000AAF1340603E0AAF1170600E0761C0025C1
:102810004FF0004406E05B1E42F1FF3220EA030560
:1028200021EA0204CAF10100B04206DA1B4903980A
:1028300008430190002000900EE0039AC4F3D321D6
:10284000E80A0A43164940EA44500A433146CDE9B2
:102850000002684604F0F9FF159810F0240F0BD021
:102860001598C00715D13868DDE90012031D3B60DB
:102870000068C0E900120CE002A8694604F0DCFF21
:102880001598C00705D13868029A011D39600068A3
:1028900002604046F0E6000002FCFFFF0000F07F0F
:1028A0000000F03F2DE9FF4F92461D4685B04FF0E6
:1028B0000041DDE9124BDDE914727F1E01EA4B5045
:1028C000414940F0FF4940EA0108002122F0200080
:1028D0004928049102D04E2828D04CE03BA0012684
:1028E00007C88DE80700A9690698641C88477F1E01
:1028F000014606D41DF8060018B121F020018142DE
:102900000BD0E96906988847032E34D0082E32D0C0
:102910006FF0010009B0BDE8F08F761C032E01D0E6
:10292000082EE0D1601CCAF80000DCE7A96906980F
:10293000641C88477F1E2AD420F02000412826D11D
:10294000A9690698641C88477F1E20D420F02000C7
:102950004E281CD1A9690698641C88477F1E48F43C
:10296000002849F48009CAF8004001D4282806D07C
:10297000E969069888475FEACB7012D022E0A9691E
:102980000698641C88477F1E01D4002803DAE96991
:1029900006988847BCE72928F1D1641CCAF8004092
:1029A000E9E71BF0240F07D028680499031D2B606A
:1029B0000068C0E9001805E02868021D2A60006868
:1029C000C0F800902046A5E70000F07F494E464938
:1029D0004E4954590000000010B50446AFF3008082
:1029E0002046BDE81040FDF772BC002801D004F07D
:1029F00055BF704710B5012805D0002103A000F095
:102A000042F8012010BD09A1F8E7000053494752E0
:102A1000544D454D3A204F7574206F6620686561AE
:102A200070206D656D6F7279000000003A20486576
:102A30006170206D656D6F727920636F7272757051
:102A400074656400B2F120030AD5C2F1200301FAD3
:102A500002F120FA03F300FA02F041EA03017047A1
:102A600000FA03F14FF0000070473A2800D23038E6
:102A700020F02002412A01D3A2F13700884201D37D
:102A80004FF0FF30704770B505460C460A2000E055
:102A90006D1C04F004FF35B128780028F8D102E05D
:102AA000641C04F0FCFE14B120780028F8D1BDE8C5
:102AB00070400A2004F0F3BE5FEA400C08BF91F0BA
:102AC000000F4FEA8C234FEAC12243EA51514FEAEB
:102AD0001C5018BF00F5F0404FEA300018BF41F01D
:102AE00000415FEA6C5C00F02980BCF1FF3F08BF49
:102AF00040F080407047130C06BF12044FF0100CDA
:102B00004FF0000C130E04BF12020CF1080C130F4F
:102B100004BF12010CF1040C930F04BF92000CF1DE
:102B2000020CD30F04BF52000CF1010C11464FF000
:102B30000002A0F11F00A0EB0C00704711F0004F45
:102B400008BF704731F000413FF4D5AF0B0C06BF12
:102B500009044FF0100C4FF0000C0B0E04BF0902DB
:102B60000CF1080C0B0F04BF09010CF1040C8B0FC6
:102B700004BF89000CF1020CCB0F04BF49000CF11B
:102B8000010CCCF12003A0EB0C0022FA03F302FAB3
:102B90000CF241EA030100F10100704720F07F4C84
:102BA00080EA030023F07F47ACEB070303F57C5377
:102BB00000F0004003F1FF032DE980494FEA154B77
:102BC00009B44FEA144325EA0B4E24EA03480FF2F6
:102BD000042606EB132749083E785FEA320203FB1E
:102BE0000667C7F5000707FB06F64FEA54374FEABA
:102BF000D64606F1020607FB066CCCF1005C4FEAF4
:102C00001C472CEA074C07FB06F40CFB06F504EB0B
:102C100015464FEA961634BF00204FF000404FEAA9
:102C2000D13706FB07FC4FEA1C4C0CFB0BF7D21B01
:102C300003FB0CF761EB07010CFB0EF7B0EB074051
:102C400072EB17420CFB08F734BFA2EB0742B2EB62
:102C5000074261EB17414FEA0C444FEA910706FB2C
:102C600007FC4FEA1C4C0CFB0BF7B0EBC74072EBB8
:102C7000573203FB0CF734BFA2EBC742B2EBC7429B
:102C800061EB57310CFB0EF7B0EBC70072EB5772DC
:102C90000CFB08F734BFA2EBC702B2EBC70261EB33
:102CA0005771039F4FEA816141EA921104EBCC0412
:102CB0004FEAD1374FEA826206FB07FC42EA9012E4
:102CC0004FEA80604FEA1C4C0CFB0BF7D21B03FB56
:102CD0000CF761EB07010CFB0EF7B0EB074072EB52
:102CE00017420CFB08F734BFA2EB0742B2EB0742D6
:102CF00061EB17414FEA8C554FEA910704EB9C2496
:102D000006FB07FC4FEA1C4C0CFB0BF7B0EBC74073
:102D100072EB573203FB0CF734BFA2EBC742B2EBA6
:102D2000C74261EB57310CFB0EF7B0EBC70072EBFB
:102D300057720CFB08F734BFA2EBC702B2EBC70215
:102D400061EB577115EB4C254FEA816141EA921115
:102D50004FEA82624FEAD13742EA901206FB07FC43
:102D600044F100044FEA80604FEA1C4C0CFB0BF767
:102D7000D21B03FB0CF761EB07010CFB0EF7B0EB6A
:102D8000074072EB17420CFB08F734BFA2EB074277
:102D9000B2EB074261EB174115EB1C154FEA81318D
:102DA00041EA92414FEA823242EA90424FEA803051
:102DB0004FEA0C7644F1000448EA03434EEA0B481C
:102DC0004FF0000EB2EB080C71EB030724BF624614
:102DD00039464EEB0E0E4FF0000B001852414941A0
:102DE0004BEB0B0BB2EB080C71EB03077BF1000B09
:102DF00024BF624639464EEB0E0E4FF0000B001812
:102E0000524149414BEB0B0BB2EB080C71EB030742
:102E10007BF1000B24BF624639464EEB0E0E51EAA1
:102E2000020718BF46F0010616EB0E7655F10002B8
:102E300054F1000103D5BDE88901BDE80088BDE873
:102E40008901BDE80048B619524141EB0101A3F1E7
:102E50000103704780807F7E7D7C7B7A79787776EE
:102E600076757473727171706F6E6E6D6C6C6B6A67
:102E70006A69686867666665646463636261616005
:102E8000605F5F5E5E5D5D5C5C5B5B5A5A59595882
:102E900058575756565555555454535352525251EC
:102EA000515050504F4F4F4E4E4D4D4D4C4C4C4B42
:102EB0004B4B4A4A4A494949484848474747474689
:102EC00046464545454444444443434343424242C5
:102ED0004241414146EA0646A3F570534FEA164681
:102EE00046EA42564FEAD22242EA415210B54FEA30
:102EF000D121A3F1010300F02FF820F0004000F1F0
:102F0000020C00F0004701EB00501146BCF5006FC9
:102F100040EA070000D210BDBAF1000F0AD01CB57C
:102F200003B44FF004004FF004014FF000000FBC59
:102F3000BDE810404FF00001BBF1010FB9BF0448DC
:102F40004FF0FF310348002140EA070010BD00BFE9
:102F5000FFFFEF7F0000F07F002B9C4630D477000E
:102F60002BD01CB54FEA370703B44FF010004FF0D9
:102F70001001BAF1000F06D0BCF1000FDCBF40F029
:102F8000080040F008014FF000000FBCBDE8104001
:102F90000BF1010BBBF1010F08BF5FEA170722BF5E
:102FA00012F1010211F101014FF0004143F1000360
:102FB00000F0004043EA00007047F9D35708D0E71B
:102FC00046EA064613F1400F4FEA16461FDD13F19D
:102FD000200FDFBF16430A46002120335B42BED0DC
:102FE000C3F1200746EA064602FA07F74FEA1646FB
:102FF00046EA0706C3F1200722FA03F201FA07F7AF
:1030000021FA03F14FF0000342EA0702A7E746EA7C
:10301000020646EA06464FEA164646EA0106BCBFE5
:1030200046EA0646360C4FF000034FF000024FF020
:10303000000194E72DE9804C9A46934670B491E8DC
:10304000380007C831EA400C48BF34EA430C03D5C6
:10305000FFF7A4FDFFF780FFF0BCBDE8008C2DE971
:10306000804C9A46934670B491E8380007C831EA1C
:10307000400C48BF34EA430C03D5FFF78FFDFFF740
:1030800029FFF0BCBDE8008C2DE9804C9A469346A0
:1030900070B491E8380007C810F0804F08BF13F0F3
:1030A000804F03D100F01AF8FFF756FFF0BCBDE8DF
:1030B000008C2DE9804C9A46934670B491E8380014
:1030C00007C810F0804F08BF13F0804F03D100F005
:1030D00005F8FFF7FFFEF0BCBDE8008C20F07F474D
:1030E00080EA030023F07F4C07EB0C03A3F57C532D
:1030F00000F00040A3F1FE0392F0000F00F0B38057
:1031000095F0000F00F077802DE901494FEA11405A
:103110004FEA144621EA004800FB06FC24EA064771
:1031200008FB06F607FB08F800FB07F718EB064854
:103130004CEB164C4FEA124B18EB07484FEA15467A
:103140004CEB174022EA0B4E0BFB06FC25EA064728
:103150000EFB06F607FB0EFE0BFB07F71EEB064EFB
:103160004CEB164C4FF000061EEB074E4CEB174B8A
:1031700018EB0B0840F1000018EB0E0B58EB0008A1
:1031800040F100008F1A4FF000013CBFC943661B9D
:1031900014BFB5EB040C00213CBFC943F61B4FEA3A
:1031A00017444EEA8E0E27EA04454FEA1C4704FBFB
:1031B00007622CEA074C05FB07F70CFB05F604FB3E
:1031C0000CFC16EB074642EB174216EB0C4642EBA3
:1031D0001C421BEB060658EB0202414146EA9E06E2
:1031E00001D5BDE80189B619524141EB0101A3F1B6
:1031F0000103BDE801894FEA14454FEA114724EA6B
:10320000054621EA074C05FB07F406FB07F70CFB14
:1032100006F105FB0CFC11EB074144EB17444FEAA8
:10322000124711EB0C4144EB1C4422EA074C05FB0E
:1032300007F206FB07F70CFB06F605FB0CFC16EB8A
:10324000074642EB174216EB0C4642EB1C456A1848
:1032500054F1000148BF7047B619524141EB0101DA
:10326000A3F10103704795F0000F37D04FEA1142E8
:103270004FEA144721EA024624EA074C02FB07F111
:1032800006FB07F70CFB06F402FB0CFC14EB0744EF
:1032900041EB17414FEA154714EB0C4441EB1C413D
:1032A00025EA074C02FB07F506FB07F70CFB06F6C1
:1032B00002FB0CFC16EB074645EB174516EB0C46DC
:1032C00045EB1C42121951F1000148BF7047B61975
:1032D000524141EB0101A3F1010370474FEA14454C
:1032E0004FEA114724EA054621EA074C05FB07F19E
:1032F00006FB07F70CFB06F24FF0000605FB0CFC83
:1033000012EB074241EB174112EB0C4251EB1C410F
:1033100048BF7047921841EB0101A3F101037047C8
:10332000FEE77047002229B101291AD002291BD0DB
:103330004FF440720E490B6823F440730B600B6826
:1033400013430B600A6822F0F8020A600A6802233D
:1033500003EBC00002430A60086840F48030086054
:1033600070474FF48072E5E74FF40072E2E7000027
:10337000103C02401348016889050FD5016821F40B
:1033800000710160016841F400610160016821F48D
:1033900000610160016841F4007101600168490544
:1033A0000FD5016821F480610160016841F480510A
:1033B0000160016821F480510160016841F480617D
:1033C00001607047003C024008490A6822F44072DC
:1033D0000A600A6842F004020A600A684FF4803307
:1033E00043EA002002430A6070470000103C02409C
:1033F000064A136823F4407313601368136013685C
:1034000043F001031360017070470000103C02405C
:10341000094910B50C6824F440740C600C6844F43D
:1034200040740C600C6844F001040C600260BFF34F
:103430006F8F436010BD0000103C0240074A1368C4
:1034400023F440731360136843F4807313601368AC
:1034500043F001031360018070470000103C0240FC
:10346000074A136823F440731360136843F400732E
:103470001360136843F0010313600160704700009C
:10348000103C024017490868C206174805D5C269B2
:1034900042F01002C26110220A600A68920605D545
:1034A000C26942F00802C26120220A600A6852061C
:1034B00005D5C26942F00402C26140220A600A686E
:1034C000120605D5C26942F00202C26180220A607A
:1034D0000A68920705D5C26942F02002C261022043
:1034E000086070470C3C0240D01A002070B51149AA
:1034F00004460020C86100F0DBFA05460E4E09E0E4
:10350000601C07D024B100F0D3FA401BA04201D9BF
:10351000032070BD3068C003F2D43068C00701D00A
:1035200001203060306810F0F200F2D0FFF7AAFFFF
:10353000012070BDD01A00200C3C0240FEB50025D1
:10354000009501952C46029500F0A2F9194E3046DF
:1035500000F03EF8014618480122022340F8085BBB
:103560004FF47A7780E80E006946134800F0FCF8C3
:1035700005000BD0641C032C03DD00F041F9284644
:10358000FEBD3846FFF7B2FF032CEDDB31460B4A98
:103590000023022000F03EF938B100F031F908A014
:1035A000FDF764F84FF0FF30FEBD00F029F9002070
:1035B000FEBD000000000E089C0D0020785634125D
:1035C0005772697465204572726F720D0A000000AF
:1035D00001460020A1F100624FF480439A4204D3D7
:1035E00020480844984201D2012070471E480844F0
:1035F000984201D2022070471C480844984201D2E8
:10360000032070471A480844B0F5803F01D20420D7
:10361000704718484FF400320844904201D2052008
:10362000704715480844904201D20620704713485D
:103630000844904201D20720704711480844904244
:1036400001D2082070470F480844904201D2092057
:1036500070470D480844904201D20A2070470B2061
:103660007047000000C0FFF70080FFF70040FFF741
:103670000000FFF70000FEF70000FCF70000FAF77B
:103680000000F8F70000F6F70000F4F72DE9F0412C
:103690000446876D00F00CFA054694F835000026C4
:1036A000022806D08020606584F834600120BDE8DF
:1036B000F0812068016821F01601016020684169ED
:1036C00021F080014161206C08B9A06C20B1206814
:1036D000016821F0080101602068016821F0010102
:1036E00001600CE000F0E4F9401B052807D9202018
:1036F0006065032084F8350084F83460D7E72068DB
:103700000068C007EED194F85C103F208840B86094
:10371000012084F8350084F834600020C7E790F871
:103720003510022903D08021416501207047052111
:1037300080F835100068016821F001010160002067
:103740007047000070B5044600F0B2F90546601CF1
:1037500002D004480078044400F0AAF9401BA042BB
:10376000FAD370BDB00000202DE9F047044622488E
:103770000E46017E01290AD00121804601764CF2D5
:1037800050394846FFF7B2FE020003D02FE0022076
:10379000BDE8F0874FF0FF3030602068174F0128F8
:1037A00001D0A5681CE0207C6168FFF70DFE48464B
:1037B000FFF79CFE0246386820F00400386014E0F1
:1037C000217C2846FFF7AEFD4846FFF78FFE02003A
:1037D000386820F0FA00386001D0356005E06D1CD3
:1037E000D4E902100844A842EAD8FFF7C3FD00213B
:1037F00088F818101046CBE7D01A0020103C024081
:103800000348016841F0004101600020704700005A
:10381000103C02402DE9F0471B4E05461446307E11
:103820001F468946012808D0012030764CF25038D6
:103830004046FFF75BFE18B114E00220BDE8F087B8
:103840009DB1012D16D0022D19D022463B46484687
:10385000FFF7DEFD4046FFF749FE0C490A6822F0FB
:1038600001020A6000213176E8E7E1B24846FFF73D
:10387000BFFDEFE7A1B24846FFF7E0FDEAE72146CA
:103880004846FFF7EDFDE5E7D01A0020103C024066
:10389000074900200A68002A09DA054A054B0C3A54
:1038A0001360054B13600968002900DA0120704796
:1038B000103C024023016745AB89EFCD2DE9F84F5D
:1038C000DFF89C910022A9F1040B03274FF00F0CA5
:1038D00009F1040AABF1040E01250B6895402B4059
:1038E000AB426ED10C7904F00304012C01D0022C00
:1038F00015D18668540007FA04F826EA0806D1F8BC
:103900000C8008FA04F848EA0608C0F80880446801
:10391000AC430D79C5F300159540254345600C79FE
:10392000E443A40708D0C568540007FA04F6B54379
:103930008E68A6402E43C6600C7904F00304022C66
:1039400011D1D40800EB8406356A5407E40E0CFA52
:1039500004F825EA0805D1F8108008FA04F848EAC6
:103960000508C6F820800568540007FA04F6B54338
:103970000E7906F00306A6402E4306604C6814F448
:10398000403F66D0374C256845F480452560246863
:1039900022F0030504F480440094334C05EB040842
:1039A000D8F808589407260F0CFA06F4A5432F4CB4
:1039B000A04201D1002424E02D4CA04202D10124D8
:1039C0001FE046E02B4CA04201D1022419E02A4C12
:1039D000A04201D1032414E0284CA04201D10424C8
:1039E0000FE0274CA04201D105240AE0254CA0425B
:1039F00001D1062405E0244CA04201D1072400E0B7
:103A00000824B4402C43C8F80848D9F800404D4673
:103A10004E689C43F60200D51C432C60DAF8004047
:103A200055464E689C43B60200D51C432C60DBF81B
:103A300000405D464E689C43B60300D51C432C6095
:103A4000DEF8004075464E689C43F60300D51C43E3
:103A50002C60521C102AFFF43FAFBDE8F88F000025
:103A6000083C014044380240003001400000024060
:103A70000004024000080240000C02400010024016
:103A80000014024000180240001C02400069084077
:103A900000D001207047426921EA02030A4043EA4C
:103AA0000241816170470AB1816170470904FBE7F7
:103AB0000148806870470000B0000020024881681B
:103AC0000278114481607047B00000200B4810B5A7
:103AD000016841F400710160016841F48061016096
:103AE000016841F480710160032000F09FF80F200D
:103AF00000F006F800F050F8002010BD003C024035
:103B000030B505461F4887B00024016841F0100118
:103B10000160006806A900F010000590684600F0FA
:103B200031F90398A8B100F04DF940001649174A41
:103B3000B0FBF1F11648491E026040F2E732C0E9DD
:103B40000324C0E90114846100F03CFB040003D0AD
:103B500015E000F037F9E9E70D4800F061FB0400DB
:103B60000DD1362000F034F8102D07D2002229465E
:103B7000362000F03BF80748056000E0012407B05C
:103B8000204630BD4038024040420F000010004047
:103B9000C4040020B40000200C4882B0016841F445
:103BA00080410160006800F4804000900748001FD9
:103BB000016841F0805101600068002200F08050EF
:103BC00000900F21901E02B000F010B8443802405F
:103BD000002809DB00F01F0201219140400980000C
:103BE00000F1E020C0F8001170470000F0B40E4B67
:103BF0001B68C3F30223C3F10704042C00D9042477
:103C00001D1D072D01D2002300E0DB1E012606FA50
:103C100004F56D1E0D409D409E40761E164045EAFF
:103C20000601F0BC01F0AFBE0CED00E0064A00F06A
:103C3000070110684FF6FF03184040EA01200349CE
:103C400008431060704700000CED00E00000FA052A
:103C50002DE9F0470D46040065D0DFF81491D9F83E
:103C60000000EFB200F00700A84207D289F8007008
:103C7000D9F8000000F00700A84254D120683D4E5A
:103C8000810712D5400703D5306840F4E05030601A
:103C90002078000703D5306840F460403060306819
:103CA000A16820F0F000084330602078C0072DD0D4
:103CB000304960680839012812D0022813D003283F
:103CC00011D00968890700292DDA316821F0030134
:103CD00001433160FFF7ECFE804641F2883A0EE086
:103CE00009688903EFE709688901ECE7FFF7E0FE5F
:103CF000A0EB0801514502D90320BDE8F0873068E8
:103D0000616800F00C00B0EB810FEFD1D9F8001022
:103D1000484601F00701A94207D90770006800F082
:103D20000700A84201D00120E7E72078400705D529
:103D30003068E16820F4E0500843306020780007E4
:103D400006D53068216920F4604040EAC100306047
:103D500000F058F83168084AC1F30311515CC840BB
:103D60000649086006480068FFF7CAFE0020C4E75D
:103D7000003C024008380240DCE40008BC0000209F
:103D8000B40000200F2202600C4A136803F0030302
:103D90004360136803F0F0038360136803F4E05397
:103DA000C36012684FF4E05303EAD2020261044890
:103DB000006800F007000860704700000838024003
:103DC000003C02400448054900680968044AC1F300
:103DD0008221515CC8407047BC0000200838024076
:103DE000ECE400080448054900680968044AC1F386
:103DF0004231515CC8407047BC0000200838024086
:103E0000ECE40008154810B5006810F00C011448E7
:103E100013D0144B04290FD008290ED10F4C241FA6
:103E2000216801F03F022168490207D52068C0F3EC
:103E30008810A0FB030106E0184610BD2168C1F3FD
:103E40008811A1FB00010023FCF77AFB2168C1F374
:103E50000141491C4900B0FBF1F010BD0838024097
:103E60000024F40040787D012DE9F84F040075D05E
:103E70002078DFF838A3C007AAF1040548D00AF17A
:103E800004000168C1F38101012908D00068C0F372
:103E9000810002280AD1DAF80000400206D528681D
:103EA000800335D560680028E1D031E06068B0F566
:103EB000803F10D0B0F5A02F286810D020F48030BB
:103EC0002860286820F4802028606068A0B1FFF78F
:103ED000EFFD06460CE0286840F48030F4E740F43B
:103EE00080202860F7E7FFF7E3FD801B642871D886
:103EF00028688003F7D50BE0FFF7DAFD064604E0FB
:103F0000FFF7D6FD801B6428F1D828688003F7D41A
:103F10002078DFF89C9280074FF0000B3DD5A34836
:103F2000001D016811F00C0F08D00068C0F381007B
:103F300002280AD1DAF80000400206D42868800777
:103F400015D5E068012809D111E0E068B8B1012079
:103F5000C9F80000FFF7ACFD064605E022E1FFF7D7
:103F6000A7FD801B0228C2D828688007F7D52868DB
:103F7000216920F0F80040EAC10028600DE0C9F88E
:103F800000B0FFF795FD064604E0FFF791FD801BAA
:103F900002281FD828688007F7D42078000722D588
:103FA000824F84486169703771B101210160FFF768
:103FB0007FFD064604E0FFF77BFD801B022809D841
:103FC00038688007F7D50EE0C0F800B0FFF770FD45
:103FD000064605E082E0FFF76BFD801B02287DD8D6
:103FE00038688007F7D42078400765D56F484FF0D0
:103FF00000083C300068C0000BD46C483C300168BD
:1040000041F08051016000684FF0010800F08050DD
:104010000090694F3868C0050FD4386840F480704C
:104020003860FFF745FD064604E0FFF741FD801BC1
:10403000022853D83868C005F7D55C4FA0686C37A4
:1040400001280FD00528386810D020F00100386012
:10405000386820F004003860A068B0B1FFF728FD90
:1040600006460EE0386840F00100F4E740F0040036
:104070003860F7E7FFF71CFD811B41F28830814271
:1040800063D838688007F5D50DE0FFF711FD0646C7
:1040900006E0FFF70DFD811B41F28830814254D8C4
:1040A00038688007F5D4B8F1000F05D03F483C30A0
:1040B000016821F080510160A069B8B33B49091D36
:1040C0000968C1F38101022946D00228584606D06A
:1040D000C9F86000FFF7ECFC044639E035E04F46D4
:1040E000C9F86000FFF7E4FC064604E0FFF7E0FCD7
:1040F000801B022829D828688001F7D4D4E9070159
:104100000843A16A2D4A490802EB0141626A41EA6B
:104110008211084394F82C1040EA0161CAF800109B
:1041200001203866FFF7C4FC044605E03CE0FFF7D9
:10413000BFFC001B022808D828688001F7D533E0AF
:10414000FFF7B6FC001B022802D90320BDE8F88F58
:1041500028688001F4D427E00128F7D0DAF80000BD
:10416000E26900F4800191421CD1226A00F03F0113
:10417000914217D147F6C071626A0140B1EB821FCC
:1041800010D1A26A4FF0FF3300F4403103EB52022A
:10419000B1EB024F06D194F82C1000F07060B0EB38
:1041A000016F01D00120D1E70020CFE704380240A1
:1041B00000004742800E4742007000400000FFFFB1
:1041C0007047704710B5040003D094F83D0010B15B
:1041D00007E0012010BD002084F83C00204600F0DC
:1041E0001EF8022084F83D00211D206801F028F906
:1041F000012084F8460084F83E0084F83F0084F8EB
:10420000400084F8410084F8420084F8430084F8B8
:10421000440084F8450084F83D00002010BD70473C
:1042200090F83D10012901D001207047022180F84B
:104230003D100168CA6842F00102CA600068114975
:10424000884214D0B0F1804F11D00F4988420ED06F
:104250000E4988420BD00E49884208D00D49884249
:1042600005D00D49884202D00C49884204D18168AA
:1042700001F00701062903D0016841F00101016046
:10428000002070470000014000040040000800408A
:10429000000C0040000401400040014000180040B4
:1042A00070472DE9F04104460068C66805694FF083
:1042B0000007A90713D5B10711D5F91E0161012027
:1042C0002077206880698007204602D0FFF7E8FF4A
:1042D00004E000F07EF8204600F07CF827776807BD
:1042E00016D5700714D521686FF00400086102200C
:1042F00020772068806910F4407F204602D0FFF7C5
:10430000CFFF04E000F065F8204600F063F827775F
:10431000280715D5300713D521686FF0080008610C
:10432000042020772068C0698007204602D0FFF76C
:10433000B7FF04E000F04DF8204600F04BF8277777
:10434000E80616D5F00614D521686FF01000086154
:10435000082020772068C06910F4407F204602D0F2
:10436000FFF79EFF04E000F034F8204600F032F83A
:104370002777E80708D0F00706D021686FF0010022
:104380000861204600F028F8280608D5300606D532
:1043900021686FF0800008612046FFF711FF680672
:1043A00008D5700606D521686FF0400008612046E8
:1043B00000F01CF8A8060AD5B00608D521686FF0F1
:1043C000200008612046BDE8F041FFF7FABEBDE8D5
:1043D000F08170477047000000680349884201D1AE
:1043E000FFF76CBB7047000000100040704770473B
:1043F00070470000F8B5016804460868CA684B6950
:1044000010F00F0F4FF0000559D003F0010602F431
:104410009077374365D0C10705D0D10503D5616CCE
:1044200041F001016164410705D5D90703D0616CF2
:1044300041F002016164810705D5D90703D0616CA1
:1044400041F004016164010707D502F02001314306
:1044500003D0616C41F008016164616C00293AD0BD
:10446000800604D5900602D5204601F084F8206825
:104470004069616CC0F38010090700D460B3204626
:1044800001F052F820684069400621D520681430B8
:1044900050E8001F21F0400140E80012002AF5D149
:1044A000E06BA8B16E490165E06BFFF738F90028B1
:1044B00011D0E06B016D01B0BDE8F0400847830604
:1044C0000FD593060DD52046BDE8F84001F053B84E
:1044D0002046FFF78DFFF8BD2046FFF789FF656492
:1044E000F8BD266B2023012E7DD1C6067BD5D606CE
:1044F00079D508684868009048694FF00206400680
:1045000041D5E16B086840680004000CE8D0A28D3A
:104510008242E5D9E085C869B0F5807F2DD020685A
:104520000C3050E8001F21F4807140E80012002A8E
:10453000F5D12068143050E8001F21F0010140E857
:104540000012002AF5D12068143050E8001F21F035
:10455000400140E80012002AF5D184F8423025637A
:1045600020680C3050E8001F21F0100140E80012D4
:10457000002AF5D1E06BFFF789F86663A08DE18D25
:10458000401A81B22AE0A08DE18D401A81B2E08DFF
:104590000028A5D00029A3D020680C3050E8002FB7
:1045A00022F4907240E80027002FF5D120681430E3
:1045B00050E8002F22F0010240E80027002FF5D13B
:1045C00084F84230256320680C3050E8002F22F038
:1045D000100240E80023002BF5D166632046FFF768
:1045E00006FFF8BDFFE705062BD5150629D594F87B
:1045F00041002128F5D1A068B0F5805F01D1206984
:10460000B0B1206A411C2162216800784860E08CCA
:10461000401E0004000CE084E3D12068C16821F052
:104620008001C1602068C16841F04001C160D8E7E5
:10463000206A0088C0F308004860206A801C20625D
:10464000E5E74006CDD55006CBD5CA68204622F016
:104650004002CA6084F8413000F0E0F8C1E7000091
:104660001955000870B5040004D094F841000025E5
:1046700010B106E0012070BD84F84050204600F0E3
:1046800023F8242084F841002068C16821F40051F7
:10469000C160204600F0D0FF2068016921F49041FC
:1046A00001612068416921F02A0141612068C168E7
:1046B00041F40051C1606564202084F8410084F811
:1046C00042006563002070BD70472DE9F84F044635
:1046D00090F84200984615460E46202802D0022047
:1046E000BDE8F88FBEB1B5B100206064222184F826
:1046F00042102063FFF7DCF9A5858246E585A068B6
:104700004FF480574FF02009B84201D1206920B101
:104710003546002628E00120E2E7002524E0534644
:10472000002220212046CDF8008001F00BF818B1BE
:1047300084F842900320D3E725B1A068B84219D08D
:1047400038B108E020684068C0F3080026F8020B82
:1047500007E0206970B12068406800F07F0005F82C
:10476000010BE08D401EE085E08D0028D7D184F854
:104770004290B5E720684068F1E770472DE9F843BB
:10478000044690F841001F4615460E46202802D0E8
:104790000220BDE8F8838EB185B10020606421203D
:1047A00084F84100FFF784F9A5848146E584A06878
:1047B0004FF02008B0F5805F02D003E00120E8E769
:1047C000206910B1354600260EE000250CE080215E
:1047D000204600F0B7FFA0B9BDB115F8010B216864
:1047E0004860E08C401EE084E08C4B464FF00002B5
:1047F00000970028EBD14FF04001204600F0A2FFC7
:1048000040B184F841800320C3E736F8020BC0F3BF
:104810000800E4E784F841800020BAE77047FEE72B
:1048200070B586B014216846FCF7A9FA3648002115
:10483000026842F010020260026802F01002059263
:10484000026842F004020260026802F0040205926B
:10485000026842F0020202600068032500F00200D4
:1048600005904FF4C040CDE90215CDE90001274E77
:1048700069463046FFF722F8012441F61C40CDE995
:10488000000469463046CDE90245FFF717F83020AD
:104890001F4D009069462846FFF710F800941D4C04
:1048A00069462046FFF70AF8002204213046FFF748
:1048B000FAF8012208213046FFF7F5F8012210210D
:1048C0003046FFF7F0F8002210212846FFF7EBF8FA
:1048D000012220212846FFF7E6F801221146204652
:1048E000FFF7E1F8002221153046FFF7DCF801223E
:1048F000D1023046FFF7D7F8012211033046FFF707
:10490000D2F806B070BD00003038024000100240FE
:1049100000080240000402400FB470B5A4B028ADF6
:104920009DF8A3406E468C2C00D38C248C213046FD
:10493000FCF725FA224605F110013046FCF7CBF9C9
:10494000084A0020694601EB800393ED030A02EB5D
:104950008003401C83ED050A0828F4DB24B070BCFA
:104960005DF814FB280100200FB470B588B00CADC1
:104970009DF833406E461C2C00D31C241C2130466D
:10498000FCF7FDF9224605F110013046FCF7A3F9CA
:10499000DDED020A9FED0C0A0C480D4960EE800A1D
:1049A000C0ED000ADDED010A60EE800AC0ED010AEB
:1049B000DDED030A20EE800A80ED020A0120087175
:1049C00008B070BC5DF814FBE12E654228010020A0
:1049D000800000200FB470B58CB010AD9DF843403E
:1049E0006E46302C00D3302430213046FCF7C7F916
:1049F000224605F110013046FCF76DF90A489DED9D
:104A0000010A80ED130A9DED020A80ED140A9DED66
:104A1000030A80ED150A9DED040A80ED160A0CB01C
:104A200070BC5DF814FB0000280100200FB470B5C5
:104A30008CB010AD9DF843406E462E2C00D32E2432
:104A40002E213046FCF79BF9224605F11001304635
:104A5000FCF741F90D4B00206A4602EB400102EBE6
:104A60008004B1F9221000EE101A03EB8001401C03
:104A7000B8EEC00A042881ED320AA468C1F8E84003
:104A8000EBDB0CB070BC5DF814FB000028010020CB
:104A90000FB470B590B014AD9DF853406E46392CEC
:104AA00000D3392439213046FCF769F9224605F153
:104AB00010013046FCF70FF90B4B00206C4604EB5D
:104AC000800103EB80028D68956691ED060A401C1B
:104AD00082ED220A91ED0A0A042882ED2A0AEEDB11
:104AE00010B070BC5DF814FB280100200FB470B545
:104AF0002DED068B8EB018AD6E469DF863409FED90
:104B0000389B342C00D3342434213046FCF737F959
:104B1000224605F110013046FCF7DDF89DED020A52
:104B2000DFED31AA9DED03AAF8EEC00A80EEAA0AD5
:104B300010EE100A08F0F4FAF8EECA0A2B4D41EC18
:104B4000180B80EEAA0A85ED108B10EE100A08F003
:104B5000E7FA41EC130B264C85ED0E3B0020E17883
:104B600021B1E07084ED068B84ED083B0121617179
:104B7000A178227811422DD02070B0EE482AF0EEB4
:104B8000682A94ED081B94ED060B03F0F5F8B0EEDF
:104B9000408AF0EE608A9FED170B51EC180B53EC36
:104BA000102B08F06BF803D2B0EE498AF0EE698A58
:104BB00095ED100B53EC182B84ED060B95ED0E0BB9
:104BC00084ED080B94ED040B51EC100B07F02CFC5A
:104BD000C4E904010EB0BDEC068B70BC5DF814FB9B
:104BE00000000000000000008096184B2801002003
:104BF000800000200000000000408F400FB4FEB590
:104C000008AD9DF823406E46092C00D309240921E4
:104C10003046FCF7B4F8224605F110013046FCF7A7
:104C20005AF804499DF80600887103F097FDFEBC10
:104C30005DF814FB800000200FB470B588B00CAD97
:104C40009DF833406E461C2C00D31C241C2130469A
:104C5000FCF795F8224605F110013046FCF73BF8C9
:104C60009DED030A0A48B1EE400A80ED120A9DED5F
:104C7000040A80ED170A9DED050A80ED180A9DEDE6
:104C8000060A80ED190A08B070BC5DF814FB00003C
:104C9000280100200FB470B58CB010AD9DF84340D2
:104CA0006E462A2C00D32A242A213046FCF767F8C6
:104CB000224605F110013046FCF70DF8BDF816004C
:104CC00000EE100A1048B8EE400A80ED420ABDF826
:104CD000181000EE101AB8EE400A80ED450ABDF833
:104CE0001A1000EE101AB8EE400A80ED430ABDF823
:104CF0001C1000EE101AB8EE400A80ED440A0CB009
:104D000070BC5DF814FB00002801002010B59CB0B9
:104D10001C2216496846FBF7DEFF0021684605F0B5
:104D20002BF9134C11491C2220601C3107A8FBF7FA
:104D3000D2FF002107A805F01FF90C4960601C2272
:104D400038310EA8FBF7C7FF00210EA805F014F9B3
:104D50000649A0601C22543115A8FBF7BCFF0021B6
:104D600015A805F009F9E0601CB010BD98D3000843
:104D70000400002010B51C4886B00024016841F0F2
:104D800010010160006800F010000590164814380A
:104D9000016841F0010101600068142100F0010088
:104DA00005906846FBF7EBFF4FF4C06000900220CF
:104DB000CDE90104032003900720049069460B48C5
:104DC000FEF77CFD0B480A4901604FF4E131C0E970
:104DD00001140C21C460C0E904418461C461FFF77F
:104DE00041FC06B010BD0000443802400000024003
:104DF00000100140F40B002070B5224886B0002559
:104E0000016841F400310160006800F40030059051
:104E10001C481038016841F001010160006814214C
:104E200000F0010005906846FBF7A9FF0C26022060
:104E30000096CDE901050320039007200490694600
:104E40001148FEF73BFD124C104820604FF4E13052
:104E5000C4E90105E560C4E90456A5612046E561A1
:104E6000FFF700FC2068C16841F02001C16000220A
:104E700005212620FEF7BAFE2620FEF7A9FE06B081
:104E800070BD000040380240000002400044004075
:104E90003C0C002030B587B014216846FBF76FFF4B
:104EA00024480025016841F480210160006800F475
:104EB000802005901F481038016841F0080101600A
:104EC0000068694600F0080005904FF440700090BB
:104ED0000220CDE901050320039007200490164825
:104EE000FEF7ECFC164C154820604FF4E130C4E9A5
:104EF00001050C20E560C4E90450A5612046E56188
:104F0000FFF7B0FB2068C16841F02001C160206854
:104F1000C16841F01001C1602068016840680590D7
:104F2000002201212720FEF761FE2720FEF750FE18
:104F300007B030BD40380240000C0240004800403D
:104F40006C0B0020FEE7FEE770B5474C01281DD032
:104F5000022846D0032872D10A004FF480614FF432
:104F600000654FF4805668D0012A6BD0022A74D0B5
:104F7000032A78D101222046FEF795FD0122294619
:104F80002046FEF790FD0022314628E0012913D08B
:104F9000022918D0032966D1012204212046FEF7F8
:104FA00082FD012208212046FEF77DFD2046BDE856
:104FB00070401021FEF76FBD002204212046FEF74D
:104FC00072FD012205E0012204212046FEF76BFD5F
:104FD000002208212046FEF766FD0122102120460E
:104FE00027E0224C224D01290FD0022914D0032999
:104FF00039D1012210212046FEF755FD0122202142
:105000002046FEF750FD002211E00022102120462C
:10501000FEF749FD012205E0012210212046FEF79E
:1050200042FD002220212046FEF73DFD0122012104
:105030002846BDE87040FEF736BD012203E012E0CD
:1050400000E00AE000222046FEF72DFD012229465D
:105050002046FEF728FD012296E701222046FEF7B2
:1050600022FD0022F3E770BD00100240000802405C
:105070000004024008B503F0B4F8DFF870801C4F5C
:105080001C4E0025009098F8001049B388F8005095
:1050900039783846312902D0322912D01AE04178C5
:1050A0002C2917D1B81C02F085FD040005D003F0AF
:1050B000ADF9204602F01EFD0CE00FA0FBF7D6FA7A
:1050C00008E041782C2905D13188B81C891E89B2A5
:1050D00005F0B4FC40F2DC5105483560FBF72DFECD
:1050E0000A21684606F0D2FECDE70000300000201D
:1050F0000C05002034000020634A534F4E5F50617E
:10510000727365206661696C65640D0A00000000B9
:1051100008B503F066F8009006F07CF905216846B2
:1051200006F0B4FEF8E70000CEB003F05AF8194CD0
:10513000DFF850800025144E144F4FF00109DFF8BE
:1051400050A004F1080B4C9003F0D2FA98F800003C
:1051500090B13078397808420ED035703D708AF8B9
:1051600000904FF4987259466846FBF7B4FDD4E9B5
:105170000023094803F016F94FF47A714CA806F0A1
:1051800085FEE1E7820000208500002084000020E9
:1051900080000020280100201400002040F2093087
:1051A000464D484C00212860454841F28836C4E904
:1051B00000010AE044A0FBF759FA05F027FF30464A
:1051C00004F0CEFE28680028F4D0D4E9000108439A
:1051D000F0D005F01BFF02210120FFF7B5FED4E956
:1051E00000233EA02968FBF741FA444F444DDFF805
:1051F00014814FF400594FF47A7A49463846FEF745
:1052000045FC012803D108213846FEF744FC2878E4
:1052100088B106F0DFF8287868B13B4802F0DFFF7C
:1052200001463AA0FBF722FA374802F0D8FF0528DA
:1052300001D306F051F904F02FFA98F8000029780C
:105240004646884336D0304802F0C9FF052805D3CA
:1052500033A0FBF70BFA06F03FF92BE03078297802
:10526000884327D0284802F0BAFF052822D231A06F
:10527000FBF7FCF90024347002F0E2FE4FF4FA660A
:10528000304604F06DFE02F0DBFE304604F068FEAE
:105290002F489FED2D0B80ED000B2E4804602E480B
:1052A00004602E480470184802F056FD02210120C7
:1052B000FFF74AFE504604F053FE9EE750000020E0
:1052C0006C29DA685800002073656E64207265618D
:1052D0006479207461736B0D0A00000069642069B1
:1052E00073202564202074696D657374616D70206E
:1052F000697320256C6C640D0A00000000100240E8
:105300008200002081000020140000207175657566
:10531000652073697A652069732025640D0A000091
:1053200073656E64206865617020747261636B0DD3
:105330000A00000073656E64207461736B206669F7
:105340006E6973680D0A0000000000000000000094
:105350009000002048000020440000204100002070
:1053600010B5502080F31188BFF34F8FBFF36F8FBC
:1053700006F028FF18B104494FF080500860002063
:1053800080F3118810BD000004ED00E030B593B04B
:1053900030216846FBF7F3FC14210CA8FBF7EFFC67
:1053A0001E480025016841F080510160006800F04E
:1053B000805011901A48016841F4804101600068F2
:1053C000022400F48040119001200090000401901C
:1053D0008001CDE90640192008904FF4A870CDE96E
:1053E000090407200B906846FEF73EFD08B172B62F
:1053F000FEE70CA90F2081E831004FF4A0500F9078
:105400004FF48050109005210CA8FEF721FC0028D5
:1054100001D072B6FEE713B030BD00004038024044
:10542000007000400248016841F47001016070475B
:1054300088ED00E00148FEF734BF0000C4040020FE
:10544000F0B50268294D2A4E2A4FDFF8ACC02B4B2D
:105450004FF0804EA84209D0704507D0B04205D029
:10546000B84203D0604501D0984203D122F07004C5
:105470004A682243A8421BD0704519D0B04217D0C9
:10548000B84215D0604513D0984211D01C4CA042B0
:105490000ED01C4CA0420BD01B4CA04208D01B4C81
:1054A000A04205D01A4CA04202D01A4CA04203D10F
:1054B00022F44074CA6822434C6922F080022243DD
:1054C00002608A68C2620A688262A84201D0984279
:1054D00001D109690163012141610169C90703D053
:1054E000016921F001010161F0BD000000000140EF
:1054F0000004004000080040000C0040000401408F
:1055000000400140004401400048014000180040B4
:10551000001C00400020004010B5806B0021C185B8
:10552000C184FEF765FF10BD01680C3151E8002F02
:1055300022F4907241E80023002BF5D10168143168
:1055400051E8002F22F0010241E80023002BF5D1A1
:10555000016B012909D101680C3151E8002F22F0BB
:10556000100241E80023002BF5D1202180F84210E1
:1055700000210163704708B590F84210222901D03C
:10558000022008BD81684FF48053994201D102691D
:1055900022B1826A99421BD049B10AE00268816A4D
:1055A0005268C2F308020A80816A891C08E0016916
:1055B00071B10168496801F07F011170816A491C6D
:1055C0008162C18D491E0904090CC18503D01BE00D
:1055D00001684968F1E70168CA6822F02002CA60E0
:1055E0000168CA6822F48072CA6001684A6922F0C0
:1055F00001024A61202180F8421000214163026BC0
:10560000012A03D0FFF7B9F8002008BD0163016843
:105610000C3151E8002F22F0100241E80023002B4A
:10562000F5D101680A68D20602D50A684968009176
:10563000818DFEF7DCFEE7E770B50446006801697E
:10564000E26821F4405111430161A1682069E269D7
:1056500001436069104301432068C26849F20C634A
:105660009A430A43C26020684169A26921F44071EB
:105670001143416131492068884202D03049884253
:1056800002D1FEF7AFFB01E0FEF79CFBE2690023CD
:10569000192164253226B2F5004F626828D0A0FB9C
:1056A0000101930F9200FAF74BFF0146B0FBF5F0B2
:1056B0006FF01802504301EB800006EB0010B0FBC6
:1056C000F5F000F0F002B1FBF5F002EB0012B1FBD7
:1056D000F5F06FF01803584301EB800006EB001063
:1056E000B0FBF5F000F00F0021681044886070BD39
:1056F000A0FB010192185B41FAF722FF0146B0FBC3
:10570000F5F00201B1FBF5F06FF01803584301EB1F
:10571000800006EBC000B0FBF5F000F0F80002EBF3
:105720004002B1FBF5F0584301EB800006EBC000EE
:10573000B0FBF5F000F00700D6E7000000100140D4
:10574000001401402DE9F8431F4690460D460446DB
:10575000089E23E0701C21D0FEF7AAF9C01BB042BE
:105760001AD8CEB12068C168490717D5802D15D049
:10577000402D13D00168C94309070FD401680025E3
:10578000406800902046FFF7CFFE0820606484F850
:1057900040500120BDE8F8830320FBE72068006843
:1057A00035EA000004D000204045D3D00020F1E7C6
:1057B0000120F9E70148FEF71DBE0000F40B0020B0
:1057C000094808B500680068C04380060BD44FF450
:1057D0007A73012269460448FEF777FF9DF80010AE
:1057E000024802F01AFC08BD3C0C0020B00D00205D
:1057F0000A4601464FF47A730148FEF7BFBF000026
:105800003C0C00207CB5314E00218DF80010306832
:105810000268D243120704D4026842680192026807
:1058200042680068294CC043294D8006A4F18404D5
:1058300038D468784FF47A7390B1686840F2DC52DB
:10584000904200D36960012269462048FEF73DFF7F
:10585000204A68689DF800101154401C686021E0DF
:10586000012269461948FEF730FFB4F880004FF472
:105870000032C0F30E017F2903D29DF8000060546E
:1058800008E06FF30E00A4F88000C0F30E009DF84E
:1058900000102154B4F8800002EBF0304FEA704061
:1058A000A4F8800030680168C943C9060CD469783F
:1058B00011B10121297004E034F8801F41F4004146
:1058C00021800168406801907CBD00006C0B0020C5
:1058D000300000200C0500200A4601464FF47A7380
:1058E0000148FEF74BBF00006C0B00200FB40C48C2
:1058F00010B503AA0299FAF7A7FE0948FBF730F999
:10590000074982B24FF47A73A1F14800FEF736FFDF
:1059100040210348FBF733FA10BC5DF814FB00008C
:10592000B40B00200448B0F88000000401D5024800
:105930007047002070470000E80A0020044931F851
:10594000800F6FF30F00088080210148FBF7F5B945
:10595000E80A0020FEE703B401984100009850EAED
:10596000C12018BF04204A0D18BF40F0010040F2CA
:10597000FF72B2EB515F08BF40F00200012808BF80
:10598000052002B070470907090E002804DB00F16A
:10599000E02080F80014704700F00F0000F1E020D4
:1059A00080F8141D7047000030B52DED048B81B0D8
:1059B000B0EE408AF0EE608A6A4651EC180B02F0B5
:1059C000C3FB00989FED329B7E300090002821DCC5
:1059D00053EC192B51EC180B06F03AFF1AD00021AA
:1059E00040F608004FF00000044651EC180B06F09A
:1059F000E9FC08EE100A40F6080004EA00014FF046
:105A00000000B5EEC08AF1EE10FA04BF0220FBF7E9
:105A1000C5FA2DE00098FF2830DB002108464FF042
:105A2000000000F4400553EC192B51EC180B07F063
:105A300025F98CBF002401240220FBF7AFFA9FED6B
:105A4000168A4DB1002C0CBF4FF400004FF48000BB
:105A5000A84218BF9FED118A042108464FF00000AC
:105A6000002C01BFB1EE480A01B0BDEC048B30BD83
:105A7000B0EE480A01B0BDEC048B30BD51EC180B00
:105A800006F0A0FC01B000EE100ABDEC048B30BDA6
:105A900000000000000000000000807FFFFF7F7F0B
:105AA00070B59B482DED020B2DED068B079D25F063
:105AB0000044A04218DC9748844202DC0AD10698D0
:105AC00040B19DED060BBDEC068B02B0BDE8704009
:105AD00001F06EBE002DCCBF9FED8F0B9FED900BA4
